S01200004F7064726163687442322E7372656369
S113000045C0000070C0000059C0000047C0000097
S113001045C0000043C0000041C000003FC00000D4
S11300203DC000003BC0000039C0000037C00000E4
S113003035C0000033C0000031C000002FC00000F4
S11300402DC000002BC0000029C0000027C0000004
S113005025C0000023C0000021C000001FC0000014
S11300601DC000001BC0000019C0000017C0000024
S113007015C0000013C0000011C000000FC0000034
S11300800DC000000BC0000009C0000011241FBEF9
S1130090CFEFD0E1DEBFCDBF02D03AC0B1CF11BAAD
S11300A08FEF84BBEAE6F0E080818B60808389B7C0
S11300B0806189BF789481E085BBFFCF1F920F9246
S11300C00FB60F9211248F9385B3813019F480E811
S11300D085BB03C085B3869585BB8F910F900FBEFA
S11300E00F901F9018951F920F920FB60F92112424
S11300F08F9385B3803819F481E085BB03C085B341
S1130100880F85BB8F910F900FBE0F901F9018958D
S1070110F894FFCF8D
S9030000FC
