S01200004F7064726163687442332E7372656368
S113000045C0000099C000007DC000005CC0000035
S11300105AC0000058C0000056C0000054C0000080
S113002052C0000050C000004EC000004CC0000090
S11300304AC0000048C0000046C0000044C00000A0
S113004042C0000040C000003EC000003CC00000B0
S11300503AC0000038C0000036C0000034C00000C0
S113006032C0000030C000002EC000002CC00000D0
S11300702AC0000028C0000026C0000024C00000E0
S113008022C0000020C000001EC0000011241FBEBA
S1130090CFEFD0E1DEBFCDBF11E0A0E0B1E0E6E7F5
S11300A0F1E000E00BBF02C007900D92A031B10750
S11300B0D9F721E0A0E1B1E001C01D92A231B2075D
S11300C0E1F70ED056C09CCF8031910530F4FC018D
S11300D0E050FF4F80818BBB089589E78BBB089567
S11300E08FEF8ABB11BAEAE6F0E080818B608083EF
S11300F089B7836089BF7894809110019091110130
S1130100E3DFFACF1F920F920FB60F9211248F9351
S11301109F9380911001909111018E3091052CF4E0
S1130120019690931101809310019F918F910F90EC
S11301300FBE0F901F9018951F920F920FB60F923B
S113014011242F938F939F9380911001909111010B
S11301508F3F2FEF92072CF001979093110180931A
S113016010019F918F912F910F900FBE0F901F90B0
S10901701895F894FFCF7E
S11301763F065B4F666D7D077F6F777C395E79003E
S9030000FC
