:1000000071C0000079C0000077C0000075C000001A
:1000100073C0000071C000006FC000006DC0000020
:100020006BC0000069C0000067C0000065C0000030
:1000300063C0000061C000005FC000005DC0000040
:100040005BC0000082C000008FC0000055C00000EF
:1000500053C0000051C000004FC000004DC0000060
:100060004BC0000049C0000047C0000045C0000070
:1000700043C0000041C000003FC000003DC0000080
:100080003BC0000039C0000037C0000035C0000090
:1000900033C0000031C000002FC000002DC00000A0
:1000A0002BC0000029C0000027C0000025C00000B0
:1000B00023C0000021C000001FC000001DC00000C0
:1000C0001BC0000019C0000017C0000015C00000D0
:1000D00013C0000011C000000FC000000DC00000E0
:1000E0000BC0000011241FBECFEFD1E2DEBFCDBF99
:1000F00000E00CBF4BD04DC083CF86E580938000DD
:10010000E1E8F0E0808182618083109285001092A6
:10011000840080E29EE4909387008093860084E4CC
:1001200098E4909389008093880090938B0080934B
:100130008A00EFE6F0E080818260808380818460C5
:10014000808384B1806C84B908951F920F920FB69A
:100150000F9211248F9385B1805885B98F910F909C
:100160000FBE0F901F9018951F920F920FB60F920F
:1001700011248F939F9395B180E4892785B99F912E
:100180008F910F900FBE0F901F9018957894B5DF48
:06019000FFCFF894FFCF41
:00000001FF
