:1000000071C000008EC000008CC000008AC00000DB
:1000100088C0000086C0000084C0000082C00000CC
:1000200080C000007EC000007CC000007AC00000DC
:1000300078C0000076C0000074C0000072C00000EC
:1000400070C000006FC000007CC000006AC00000EB
:1000500068C00000F6C1000064C0000062C000007B
:1000600060C000005EC000005CC000005AC000001C
:1000700058C0000056C0000054C0000052C000002C
:1000800050C000004EC000004CC000004AC000003C
:1000900048C0000046C0000044C0000042C000004C
:1000A00040C000003EC000003CC000003AC000005C
:1000B00038C0000036C0000034C0000032C000006C
:1000C00030C000002EC000002CC000002AC000007C
:1000D00028C0000026C0000024C0000022C000008C
:1000E00020C0000011241FBECFEFD1E2DEBFCDBF84
:1000F00000E00CBF22E0A6E0B2E001C01D92A232F7
:10010000B207E1F712E0A0E0B2E0EAE8FBE000E0CD
:100110000BBF02C007900D92A630B107D9F74DD1A1
:1001200032C56ECF1F920F920FB60F9211248F938C
:1001300085B1805885B98F910F900FBE0F901F9099
:1001400018951F920F920FB60F9211248F939F93C1
:1001500095B180E4892785B99F918F910F900FBE4B
:100160000F901F90189520E23EE4A901481B590BFF
:10017000CA0108956115710509F059C082339105CE
:1001800041F48CED95E0EFDF90938B0080938A0033
:1001900008958333910524F1BC0162537109072E40
:1001A000000C880B990BDFD220E030E048E452E4E9
:1001B0003FD220E030E048EC52E461D32DEC3CEC3F
:1001C0004CEC5FE35CD320E030E840EC54E4CCD16D
:1001D00097D2CB01C8DF90938B0080938A0008955B
:1001E00062E370E0681B790B072E000C880B990BFB
:1001F000BAD220E030E048E452E41AD220E030E005
:1002000048EC52E43CD32DEC3CEC4CEC5FE337D3B0
:100210009B01AC0160E070E886EB94E4A4D170D25D
:10022000CB01A1DF90938B0080938A000895613009
:10023000710509F058C08233910541F48CED95E0C9
:1002400092DF90938900809388000895833391050D
:1002500034F1BC0162537109072E000C880B990B15
:1002600082D220E030E048E452E4E2D120E030E005
:1002700048EC52E404D32DEC3CEC4CEC5FE3FFD2B1
:100280009B01AC0160E070E886EB94E46CD138D25D
:10029000CB0169DF9093890080938800089562E321
:1002A00070E0681B790B072E000C880B990B5BD252
:1002B00020E030E048E452E4BBD120E030E048ECFC
:1002C00052E4DDD22DEC3CEC4CEC5FE3D8D220E0E4
:1002D00030E840EC54E448D113D2CB0144DF909392
:1002E0008900809388000895CF93DF93EC0160E04C
:1002F00070E040DF61E070E0CE013CDFDF91CF9144
:100300000895F2CF089586E580938000E1E8F0E05B
:10031000808182618083109285001092840080E247
:100320009EE490938700809386008CED95E01BDF20
:10033000909389008093880090938B0080938A002B
:10034000EFE6F0E08081826080838081846080833A
:1003500084B1806C84B908959C01261B370B233C23
:1003600041E034070CF1680F791F6A3743E07407E6
:10037000F4F46E3972401CF02F393240DCF0BC01CD
:10038000625C7140072E000C880B990BECD120E0C9
:1003900030E04CED53E44CD120E030E048EC52E446
:1003A0006ED2AED1CB01089580E090E0089584E64E
:1003B00090E0089582E390E00895789414B8A3DF64
:1003C00017D080E190E0BED2EC01BC0183E090E068
:1003D0001BD06AE070E088819981BEDF60E070E048
:1003E00024E630E0A901481B590BCA018ADFF1CF8E
:1003F00085B5826185BD16BC8AE087BDEEE6F0E07A
:100400008081826080830895FC01EE0FFF1F8E0FB4
:100410009F1FFC01EA5FFD4F718360831282089584
:1004200093B121E030E002C0220F331F8A95E2F73A
:10043000892F90E02823392381E0232B09F480E0E1
:1004400008951F920F920FB60F9211240BB60F92C0
:100450002F933F934F935F936F937F938F939F93CC
:10046000AF93BF93CF93DF93EF93FF93C0E0D0E0C0
:1004700060C0FE01EE0FFF1FEC0FFD1FEA5FFD4F96
:1004800080819181892B09F453C0CE01C9DF882373
:1004900089F1FE01EE0FFF1FEC0FFD1FEA5FFD4F1C
:1004A000828181110EC0FE01EE0FFF1FEC0FFD1FB8
:1004B000EA5FFD4F81E082830190F081E02D11829F
:1004C0001082FE01EE0FFF1FEC0FFD1FEA5FFD4FD4
:1004D0008281882379F0FE01EE0FFF1FEC0FFD1FD4
:1004E000EA5FFD4F0190F081E02D808191810A96B5
:1004F00091838083CE0194DF81111AC0FE01EE0F3B
:10050000FF1FEC0FFD1FEA5FFD4F8281882381F002
:10051000FE01EE0FFF1FEC0FFD1FEA5FFD4FA081F4
:10052000B1818D919C9111970A968D939C93128223
:100530002196C430D1050CF49CCF16BCFF91EF91ED
:10054000DF91CF91BF91AF919F918F917F916F91EB
:100550005F914F913F912F910F900BBE0F900FBE67
:100560000F901F9018955058BB27AA270ED04DC149
:100570003ED130F043D120F031F49F3F11F41EF40E
:1005800033C10EF4E095E7FB29C1E92F4FD180F389
:10059000BA17620773078407950718F071F49EF580
:1005A00067C10EF4E0950B2EBA2FA02D0B01B901F7
:1005B00090010C01CA01A0011124FF27591B99F0D9
:1005C000593F50F4503E68F11A16F040A22F232FE5
:1005D000342F4427585FF3CF469537952795A79535
:1005E000F0405395C9F77EF41F16BA0B620B730BDC
:1005F000840BBAF09150A1F0FF0FBB1F661F771F4D
:10060000881FC2F70EC0BA0F621F731F841F48F401
:10061000879577956795B795F7959E3F08F0B3CF87
:100620009395880F08F09927EE0F97958795089571
:100630000CD0EBC0E3D040F0DAD030F021F45F3FD3
:1006400019F0CCC0511115C1CFC0F0D098F3992347
:10065000C9F35523B1F3951B550BBB27AA27621786
:100660007307840738F09F5F5F4F220F331F441FCB
:10067000AA1FA9F333D00E2E3AF0E0E830D0915003
:100680005040E695001CCAF729D0FE2F27D0660FF0
:10069000771F881FBB1F261737074807AB07B0E82F
:1006A00009F0BB0B802DBF01FF2793585F4F2AF045
:1006B0009E3F510568F092C0DCC05F3FECF3983E6E
:1006C000DCF3869577956795B795F7959F5FC9F7A2
:1006D000880F911D9695879597F90895E1E0660F2B
:1006E000771F881FBB1F621773078407BA0720F0A4
:1006F000621B730B840BBA0BEE1F88F7E09508950D
:1007000004D06894B111B5C0089598D088F09F576F
:1007100090F0B92F9927B751A0F0D1F0660F771F4D
:10072000881F991F1AF0BA95C9F712C0B13081F02D
:100730009FD0B1E008959CC0672F782F8827B85FBD
:1007400039F0B93FCCF3869577956795B395D9F78E
:100750003EF490958095709561957F4F8F4F9F4F98
:100760000895E89409C097FB3EF4909580957095A4
:1007700061957F4F8F4F9F4F9923A9F0F92F96E9ED
:10078000BB279395F695879577956795B795F11162
:10079000F8CFFAF4BB0F11F460FF1BC06F5F7F4FFF
:1007A0008F4F9F4F16C0882311F096E911C0772311
:1007B00021F09EE8872F762F05C0662371F096E81A
:1007C000862F70E060E02AF09A95660F771F881FE9
:1007D000DAF7880F9695879597F9089597F99F67A7
:1007E00080E870E060E008959FEF80EC08950024B9
:1007F0000A941616170618060906089500240A9486
:1008000012161306140605060895092E0394000C0B
:1008100011F4882352F0BB0F40F4BF2B11F460FF9A
:1008200004C06F5F7F4F8F4F9F4F089557FD9058C3
:10083000440F551F59F05F3F71F04795880F97FBA4
:10084000991F61F09F3F79F087950895121613065E
:100850001406551FF2CF4695F1DF08C0161617068D
:100860001806991FF1CF86957105610508940895C2
:10087000E894BB2766277727CB0197F908950BD01B
:10088000C4CFB5DF28F0BADF18F0952309F0A6CF62
:10089000ABCF1124EECFCADFA0F3959FD1F3950F14
:1008A00050E0551F629FF001729FBB27F00DB11DF4
:1008B000639FAA27F00DB11DAA1F649F6627B00D84
:1008C000A11D661F829F2227B00DA11D621F739F6D
:1008D000B00DA11D621F839FA00D611D221F749F7B
:1008E0003327A00D611D231F849F600D211D822FC2
:1008F000762F6A2F11249F5750408AF0E1F0882309
:100900004AF0EE0FFF1FBB1F661F771F881F915015
:100910005040A9F79E3F510570F060CFAACF5F3FCE
:10092000ECF3983EDCF3869577956795B795F79548
:10093000E7959F5FC1F7FE2B880F911D96958795D0
:1009400097F908950F931F93CF93DF93823091050A
:1009500010F482E090E0E0912002F091210220E08A
:1009600030E0A0E0B0E0309719F140815181028180
:10097000138148175907C8F08417950769F4109731
:1009800031F012960C93129713961C9327C0009384
:1009900020021093210222C02115310519F04217BF
:1009A000530718F49A01BD01EF01DF01F801DBCF15
:1009B00021153105F9F0281B390B2430310580F45D
:1009C0008A819B816115710521F0FB0193838283EC
:1009D00004C09093210280932002FE01329644C00D
:1009E000FE01E20FF31F8193919322503109398365
:1009F00028833AC020911E0230911F02232B41F41C
:100A0000209102023091030230931F0220931E02B4
:100A100020910002309101022115310541F42DB7DA
:100A20003EB74091040250910502241B350BE09122
:100A30001E02F0911F02E217F307A0F42E1B3F0BDA
:100A40002817390778F0AC014E5F5F4F2417350740
:100A500048F04E0F5F1F50931F0240931E02819378
:100A6000919302C0E0E0F0E0CF01DF91CF911F91C0
:100A70000F910895CF93DF93009709F481C0FC0193
:100A8000329713821282A0912002B0912102109716
:100A900081F420813181820F931F20911E023091B9
:100AA0001F022817390751F5F0931F02E0931E0229
:100AB00067C0ED0120E030E0CE17DF0740F44A8147
:100AC0005B819E0141155105F1F0EA01F5CFD38319
:100AD000C28340815181840F951FC817D90759F4EB
:100AE00088819981840F951F0296918380838A81E2
:100AF0009B81938382832115310529F4F093210290
:100B0000E09320023DC0E901FB83EA8349915991BA
:100B1000C40FD51FEC17FD0761F480819181840F0C
:100B2000951F0296E90199838883828193819B8333
:100B30008A83E0E0F0E012968D919C9113970097E4
:100B400019F0FD01DC01F7CF8D919C9111979D016A
:100B50002E5F3F4F820F931F20911E0230911F0284
:100B60002817390769F4309729F41092210210925E
:100B7000200202C013821282B0931F02A0931E02B1
:0A0B8000DF91CF910895F894FFCFA4
:060B8A0000002202200021
:00000001FF
