S014000045696E646F706472616368742E737265633B
S113000071C000008EC000008CC000008AC00000D7
S113001088C0000086C0000084C0000082C00000C8
S113002080C000007EC000007CC000007AC00000D8
S113003078C0000076C0000074C0000072C00000E8
S113004070C000006FC000007CC000006AC00000E7
S113005068C00000EDC0000064C0000062C0000081
S113006060C000005EC000005CC000005AC0000018
S113007058C0000056C0000054C0000052C0000028
S113008050C000004EC000004CC000004AC0000038
S113009048C0000046C0000044C0000042C0000048
S11300A040C000003EC000003CC000003AC0000058
S11300B038C0000036C0000034C0000032C0000068
S11300C030C000002EC000002CC000002AC0000078
S11300D028C0000026C0000024C0000022C0000088
S11300E020C0000011241FBECFEFD1E2DEBFCDBF80
S11300F000E00CBF22E0A6E0B2E001C01D92A232F3
S1130100B207E1F712E0A0E0B2E0EAE9F5E000E0CE
S11301100BBF02C007900D92A630B107D9F753D098
S11301203AC26ECF1F920F920FB60F9211248F9383
S113013085B1805885B98F910F900FBE0F901F9095
S113014018951F920F920FB60F9211248F939F93BD
S113015095B180E4892785B99F918F910F900FBE47
S11301600F901F90189520E23EE4A901481B590BFB
S1130170CA01089586E580938000E1E8F0E080817B
S113018082618083109285001092840080E29EE454
S113019090938700809386008CED95E0E4DF909344
S11301A089008093880090938B0080938A00EFE607
S11301B0F0E080818260808380818460808384B168
S11301C0806C84B90895789414B8D4DF08D080E1A1
S11301D090E0C0D0BC0183E090E00DD0FFCF85B5A6
S11301E0826185BD16BC85E087BDEEE6F0E08081C6
S11301F0826080830895FC01EE0FFF1F8E0F9F1F06
S1130200FC01EA5FFD4F718360831282089593B10C
S113021021E030E002C0220F331F8A95E2F7892FD4
S113022090E02823392381E0232B09F480E008950A
S11302301F920F920FB60F9211240BB60F922F93A9
S11302403F934F935F936F937F938F939F93AF935A
S1130250BF93CF93DF93EF93FF93C0E0D0E060C0F0
S1130260FE01EE0FFF1FEC0FFD1FEA5FFD4F8081C3
S11302709181892B09F453C0CE01C9DF882389F108
S1130280FE01EE0FFF1FEC0FFD1FEA5FFD4F8281A1
S113029081110EC0FE01EE0FFF1FEC0FFD1FEA5F80
S11302A0FD4F81E082830190F081E02D1182108264
S11302B0FE01EE0FFF1FEC0FFD1FEA5FFD4F828171
S11302C0882379F0FE01EE0FFF1FEC0FFD1FEA5F9C
S11302D0FD4F0190F081E02D8081918105969183FD
S11302E08083CE0194DF81111AC0FE01EE0FFF1F3F
S11302F0EC0FFD1FEA5FFD4F8281882381F0FE0130
S1130300EE0FFF1FEC0FFD1FEA5FFD4FA081B181CF
S11303108D919C91119705968D939C9312822196B1
S1130320C830D1050CF49CCF16BCFF91EF91DF913E
S1130330CF91BF91AF919F918F917F916F915F9179
S11303404F913F912F910F900BBE0F900FBE0F90C6
S11303501F9018950F931F93CF93DF9382309105CD
S113036010F482E090E0E0912002F091210220E07C
S113037030E0A0E0B0E0309719F140815181028172
S1130380138148175907C8F08417950769F4109723
S113039031F012960C93129713961C9327C0009376
S11303A020021093210222C02115310519F04217B1
S11303B0530718F49A01BD01EF01DF01F801DBCF07
S11303C021153105F9F0281B390B2430310580F44F
S11303D08A819B816115710521F0FB0193838283DE
S11303E004C09093210280932002FE01329644C0FF
S11303F0FE01E20FF31F8193919322503109398357
S113040028833AC020911E0230911F02232B41F40D
S1130410209102023091030230931F0220931E02A6
S113042020910002309101022115310541F42DB7CC
S11304303EB74091040250910502241B350BE09114
S11304401E02F0911F02E217F307A0F42E1B3F0BCC
S11304502817390778F0AC014E5F5F4F2417350732
S113046048F04E0F5F1F50931F0240931E0281936A
S1130470919302C0E0E0F0E0CF01DF91CF911F91B2
S11304800F910895CF93DF93009709F481C0FC0185
S1130490329713821282A0912002B0912102109708
S11304A081F420813181820F931F20911E023091AB
S11304B01F022817390751F5F0931F02E0931E021B
S11304C067C0ED0120E030E0CE17DF0740F44A8139
S11304D05B819E0141155105F1F0EA01F5CFD3830B
S11304E0C28340815181840F951FC817D90759F4DD
S11304F088819981840F951F0296918380838A81D4
S11305009B81938382832115310529F4F093210281
S1130510E09320023DC0E901FB83EA8349915991AC
S1130520C40FD51FEC17FD0761F480819181840FFE
S1130530951F0296E90199838883828193819B8325
S11305408A83E0E0F0E012968D919C9113970097D6
S113055019F0FD01DC01F7CF8D919C9111979D015C
S11305602E5F3F4F820F931F20911E0230911F0276
S11305702817390769F4309729F410922102109250
S1130580200202C013821282B0931F02A0931E02A3
S10D0590DF91CF910895F894FFCF96
S109059A00002202200013
S9030000FC
