S01200004F7064726163687442352E7372656366
S113000045C0000058C0000056C0000054C00000A5
S113001052C0000050C000004EC000004CC00000A0
S11300204AC0000048C0000046C0000044C00000B0
S113003042C0000040C000003EC000003CC00000C0
S11300403AC0000038C0000036C0000034C00000D0
S113005032C0000030C000002EC000002CC00000E0
S11300602AC0000028C0000026C0000024C00000F0
S113007022C0000020C000001EC000001CC0000000
S11300801AC0000018C0000016C0000011241FBED2
S1130090CFEFD0E1DEBFCDBF11E0A0E0B1E0EAE9EF
S11300A0F1E000E00BBF02C007900D92A231B1074E
S11300B0D9F76AD070C0A4CFDE9A8FEC97E001978D
S11300C0F1F700C00000DE988FEC97E00197F1F79C
S11300D000C000000895CF93C82F85BBDC98ECDFE7
S11300E0C295C07FC5BBDC98E7DFCF910895CF935D
S11300F08FEF81BB8ABB15BA1BBAC0E2C5BBDCDF7C
S1130100C5BBDADF80E885BBD7DF15BAD5DF80EF62
S113011085BBD2DF15BAD0DF80E685BBCDDFCF91BA
S11301200895CF93C82F85BBDC9AC6DFC295C07FE4
S1130130C5BBDC9AC1DFCF91089581E0CCDF8FE9A4
S11301409FE00197F1F700C0000080E8C4CF089554
S11301508FEF84BB85BBCBDF8FE19EE40197F1F782
S113016000C00000EACF0895CF93DF93EC018881AB
S1130170882329F02196D5DF89918111FCCFDF9165
S1130180CF910895F1CF0895E3DF80E091E0FADFA5
S10D019080E090E00895F894FFCF9A
S113019A546573742048656C6C6F20576F726C6475
S10501AA00004F
S9030000FC
