:1000000045C000004BC0000049C0000047C00000D0
:1000100045C0000043C0000041C000003FC00000D8
:100020003DC000003BC0000039C0000037C00000E8
:100030004BC0000033C0000031C000002FC00000E2
:100040002DC000002BC0000029C0000027C0000008
:1000500025C0000023C0000021C000001FC0000018
:100060001DC000001BC0000019C0000017C0000028
:1000700015C0000013C0000011C000000FC0000038
:100080000DC000000BC0000009C0000011241FBEFD
:10009000CFEFD0E1DEBFCDBF02D037C0B1CF789473
:1000A00086E58FBD8EB585608EBD1DBC1CBC80E90C
:1000B00091E097BD86BD85E790E09BBD8ABD87B77F
:1000C000806187BF8F9AFFCF1F920F920FB60F925A
:1000D00011248F939F938AB59BB58537910531F491
:1000E00083EC90E09BBD8ABD979A07C085E790E0BE
:1000F0009BBD8ABD82B3805882BB14BC9F918F91F7
:0E0100000F900FBE0F901F901895F894FFCF30
:00000001FF
